:020000020000FC
:0200000004C03A
:1000080021C08FEF88E08DBF8EBFAFEFA4B9A0E00D
:10001800AAB9AFEFA7B98CE08093690082E08DBBE5
:100028007894E8B9AA27A5B980E491E004D0A3950B
:10003800A031C1F3F8CF79EF7A950000E9F701977D
:10004800D1F708957F938F939F939FB79F9309B19B
:10005800007209F0E395EF3309F4E0E082E08CBB2D
:100068009F919FBF9F918F917F9118957F938F93B9
:100078009F9306D00197E9F79F918F917F910895FB
:0C00880077EF7A950000E9F7000008957A
:00000001FF
