:020000020000FC
:0200000004C03A
:100008001BC08FEF8DBF88E08EBF8FEF84B98FEF55
:1000180087B988278AB98CE08093690082E08DBB14
:100028007894BB27B8B980E49FE1AA27A5B921D065
:10003800A395A031D1F3FACF7F938F939F938FB776
:100048008F9380E590E072E07CBB13D07CB371FDA8
:10005800FACF7FEF7BB979B175FF04C0B395B0349F
:1000680009F4BB27B8B98F918FBF9F918F917F916A
:1000780018957F938F939F9306D00197E9F79F91E7
:100088008F917F91089577EF7A950000E9F7000046
:020098000895C9
:00000001FF
