:020000020000FC
:020000002AC014
:020034002AC0E0
:1000540026C08FEF8DBF88E08EBF11E410937C0023
:100064001FE810937A0015E01093810012EC1093AE
:10007400850017EF1093840081E080936F007894DB
:100084008FD08FEF8AB910917A00106410937A00A0
:1000940012EC1093850017EF109384001895FF93CA
:1000A400EF93DF93CF934F935F936F937F93C091BD
:1000B4007800D0917900FD2FEC2F8894CC1FDD1FA0
:1000C4008894CC1FDD1FCE0FDF1F44E6C49F502D44
:1000D400612D002411247727D49F600D711D4AE0FF
:1000E4007695679557954A95D9F73327222711278F
:1000F40074E680E0952FA62FA817970720F0945652
:10010400A0403395F9CF7AE080E0A817970720F054
:100114009A50A0402395F7CF71E080E0A817970785
:1001240020F09150A0401395F7CF70E3370F270FBD
:10013400170F832F23D0822F21D0812F1FD086E544
:100144001DD07F916F915F914F91DF91CF91EF918E
:10015400FF9118958F9399B19F70807F890F8BB908
:100164005B9A000000005B988F918295807F890FD5
:100174008BB95B9A000000005B9808955A9AEADFF5
:100184008AEF90E03CD008955A98E4DF8AEF90E03B
:1001940036D0089581E0F8DF85E090E030D008950E
:1001A40088EC90E02CD080E38BB95B9A00000000CF
:1001B4005B988AEF90E023D080E38BB95B9A0000D0
:1001C40000005B988AEF90E01AD080E38BB95B9AC9
:1001D400000000005B988AEF90E011D080E28BB9B8
:1001E4005B9A000000005B988AEF90E008D088E2F8
:1001F400CBDF8CE0C9DFCEDF86E0C6DF08957F93D6
:100204008F939F9306D00197E9F79F918F917F91E8
:0E021400089577EF7A950000E9F7000008954D
:00000001FF
