:020000020000FC
:1000000007C0051A2E42576C8094A8BDD1E6FA00AD
:100010008FEF8DBF88E08EBF81E8809380008CE0F9
:10002000809381008FE384B988278AB956E0E2E0A3
:10003000F0E0E50FF01F44914093880089B18830CB
:1000400019F0803181F0FACF1DD089B18F3FE1F7EF
:100050004A3FA1F35395E2E0F0E0E50FF01F449131
:1000600040938800EBCF0ED089B18F3FE1F7453048
:1000700029F35A95E2E0F0E0E50FF01F4491409338
:100080008800DCCF7F938F939F9306D00197E9F789
:100090009F918F917F91089577EF7A950000E9F70E
:0400A00000000895BF
:00000001FF
