:020000020000FC
:0200000002C03C
:1000040017C08FEF8DBF88E08EBF8FEF84B98FEF5D
:1000140087B983E08093690081E08DBB789480E0A8
:100024009DE7AA27A8B92BD0A395A032D1F3FACF84
:100034007F938F939F938FB78F9380E590E072E0C7
:100044007CBB1DD07CB371FDFACF7FEF75B973B162
:10005400882770FD01C0816071FD02C0880F816036
:1000640072FD02C0880F816073FD02C0880F816039
:1000740088B98F918FBF9F918F917F9118957F93AE
:100084008F939F9306D00197E9F79F918F917F916A
:0E009400089577EF7A950000E9F700000895CF
:00000001FF
